:020000040800F2
:100000000008002001C0000841D4000841D40008C5
:1000100041D4000841D4000841D4000841D400086C
:1000200041D4000841D4000841D4000831E300085D
:1000300041D4000841D4000841D4000821F7000849
:1000400041D4000841D4000841D4000841D400083C
:1000500041D4000841D4000841D4000841D400082C
:1000600041D4000841D4000841D40008B1F100088F
:10007000E1F1000811F2000841F2000871F20008F5
:10008000A1F20008D1F20008A11A010881F80008C5
:10009000C1F8000831F90008A1F9000841D40008AE
:1000A00041D4000841D4000841D4000841D40008DC
:1000B00041D4000841110108E11A0108D1FF0008EC
:1000C000D100010841D4000841D4000841D40008FF
:1000D00041D4000841D4000841D40008111501089A
:1000E000C11A010841D4000841D4000841D40008D5
:1000F00041D4000841D40008111B010801F3000895
:1001000041D4000841D4000841D4000841D400087B
:1001100041D4000841D4000841D4000841D400086B
:1001200031F3000861F3000891F30008C1F30008FF
:10013000F1F3000841D4000841D4000841D400087C
:1001400041D4000841D4000841D40008210F01081F
:1001500021F4000851F4000881F400083115010869
:1001600041D4000841D4000841D4000841D400081B
:1001700041D4000841D4000841D4000841D400080B
:1001800041D4000841D4000841D4000841D40008FB
:1001900041D4000841D4000841D4000841D40008EB
:1001A00041D4000841D4000841D4000841D40008DB
:1001B00041D4000841D4000841D4000841D40008CB
:10C0000072B6334880F3098840F20000CCF2000099
:10C010004EF63471CEF200010860BFF34F8FBFF3CC
:10C020006F8F40F20000C0F2F0004EF68851CEF261
:10C0300000010860BFF34F8FBFF36F8F4FF0000018
:10C04000E1EE100A4EF63C71CEF2000108600620C7
:10C0500080F31488BFF36F8F01F0DAF905F0A8FBC5
:10C060004FF055301B491C4A91423CBF41F8040B2C
:10C07000FAE71A49164A91423CBF41F8040BFAE725
:10C080001749184A184B9A423EBF51F8040B42F820
:10C09000040BF8E700201549154A91423CBF41F8CE
:10C0A000040BFAE701F0BCF9124C134DAC4203DA71
:10C0B00054F8041B8847F9E705F032FC0F4C104D8B
:10C0C000AC4203DA54F8041B8847F9E701F0B0B931
:10C0D00000100020000000200008002000080020C0
:10C0E0002803030800100020441A0020481A0020EA
:10C0F000E81C012000C0000800C0000800C00008C3
:10C1000000C0000800000000000000000000000067
:10C110002DE9F04F2DED108AC1F80CD0D0F80CD0DD
:10C12000BDEC108ABDE8F08F002383F31188284608
:10C13000A047002001F084FC01F0B2FB00DFFEE725
:10C1400081F0004102E000BF83F0004330B54FEAC8
:10C1500041044FEA430594EA050F08BF90EA020F35
:10C160001FBF54EA000C55EA020C7FEA645C7FEAC8
:10C17000655C00F0E2804FEA5454D4EB5555B8BFEB
:10C180006D420CDD2C4480EA020281EA030382EA5C
:10C19000000083EA010180EA020281EA0303362DEE
:10C1A00088BF30BD11F0004F4FEA01314FF4801CC1
:10C1B0004CEA113102D0404261EB410113F0004FD3
:10C1C0004FEA03334CEA133302D0524263EB43038A
:10C1D00094EA050F00F0A780A4F10104D5F1200E28
:10C1E0000DDB02FA0EFC22FA05F2801841F1000183
:10C1F00003FA0EF2801843FA05F359410EE0A5F157
:10C2000020050EF1200E012A03FA0EFC28BF4CF087
:10C21000020C43FA05F3C01851EBE37101F000453D
:10C2200007D54FF0000EDCF1000C7EEB00006EEB4A
:10C230000101B1F5801F1BD3B1F5001F0CD34908D4
:10C240005FEA30004FEA3C0C04F101044FEA44522B
:10C2500012F5800F80F09A80BCF1004F08BF5FEAB2
:10C26000500C50F1000041EB045141EA050130BD92
:10C270005FEA4C0C404141EB010111F4801FA4F135
:10C280000104E9D191F0000F04BF01460020B1FA8A
:10C2900081F308BF2033A3F10B03B3F120020CDAC2
:10C2A0000C3208DD02F1140CC2F10C0201FA0CF0A0
:10C2B00021FA02F10CE002F11402D8BFC2F1200C05
:10C2C00001FA02F120FA0CFCDCBF41EA0C019040BB
:10C2D000E41AA2BF01EB0451294330BD6FEA040404
:10C2E0001F3C1CDA0C340EDC04F11404C4F12002EF
:10C2F00020FA04F001FA02F340EA030021FA04F301
:10C3000045EA030130BDC4F10C04C4F1200220FA57
:10C3100002F001FA04F340EA0300294630BD21FA95
:10C3200004F0294630BD94F0000F83F4801306BF5B
:10C3300081F480110134013D4EE77FEA645C18BF4F
:10C340007FEA655C29D094EA050F08BF90EA020FE6
:10C3500005D054EA000C04BF1946104630BD91EADE
:10C36000030F1EBF0021002030BD5FEA545C05D1E1
:10C370004000494128BF41F0004130BD14F5800420
:10C380003CBF01F5801130BD01F0004545F0FE4194
:10C3900041F470014FF0000030BD7FEA645C1ABFC9
:10C3A000194610467FEA655C1CBF0B46024650EA00
:10C3B000013406BF52EA033591EA030F41F400212C
:10C3C00030BD00BF90F0000F04BF0021704730B5B2
:10C3D0004FF4806404F132044FF000054FF0000187
:10C3E00050E700BF90F0000F04BF0021704730B548
:10C3F0004FF4806404F1320410F0004548BF40421D
:10C400004FF000013EE700BF42004FEAE2014FEA71
:10C4100031014FEA02701FBF12F07F4393F07F4F4C
:10C4200081F06051704732F07F4208BF704793F04F
:10C430007F4F04BF41F40021704730B54FF4607462
:10C4400001F0004521F000411CE700BF50EA010265
:10C4500008BF704730B54FF000050AE050EA01020E
:10C4600008BF704730B511F0004502D5404261EB7E
:10C4700041014FF4806404F132045FEA915C3FF4BF
:10C48000D8AE4FF003025FEADC0C18BF03325FEA5C
:10C49000DC0C18BF033202EBDC02C2F1200300FA0D
:10C4A00003FC20FA02F001FA03FE40EA0E0021FA32
:10C4B00002F11444BDE600BF0000000000000000CF
:10C4C00070B54FF0FF0C4CF4E06C1CEA11541DBF2A
:10C4D0001CEA135594EA0C0F95EA0C0F00F0DEF8F5
:10C4E0002C4481EA030621EA4C5123EA4C5350EADA
:10C4F000013518BF52EA033541F4801143F480132B
:10C5000038D0A0FB02CE4FF00005E1FB02E506F0BB
:10C510000042E0FB03E54FF00006E1FB03569CF010
:10C52000000F18BF4EF0010EA4F1FF04B6F5007F16
:10C5300064F5407404D25FEA4E0E6D4146EB060688
:10C5400042EAC62141EA55514FEAC52040EA5E5011
:10C550004FEACE2EB4F1FD0C88BFBCF5E06F1ED8BB
:10C56000BEF1004F08BF5FEA500E50F1000041EBF2
:10C57000045170BD06F0004646EA010140EA02009F
:10C5800081EA0301B4EB5C04C2BFD4EB0C0541EAC1
:10C59000045170BD41F480114FF0000E013C00F3D6
:10C5A000AB8014F1360FDEBF002001F0004170BDFA
:10C5B000C4F10004203C35DA0C341BDC04F1140413
:10C5C000C4F1200500FA05F320FA04F001FA05F29F
:10C5D00040EA020001F0004221F0004110EBD3706C
:10C5E00021FA04F642EB06015EEA430E08BF20EA98
:10C5F000D37070BDC4F10C04C4F1200500FA04F33B
:10C6000020FA05F001FA04F240EA020001F00041CC
:10C6100010EBD37041F100015EEA430E08BF20EA3F
:10C62000D37070BDC4F1200500FA05F24EEA020E87
:10C6300020FA04F301FA05F243EA020321FA04F0B6
:10C6400001F0004121FA04F220EA020000EBD3706D
:10C650005EEA430E08BF20EAD37070BD94F0000F6D
:10C660000FD101F00046400041EB010111F4801FA1
:10C6700008BF013CF7D041EA060195F0000F18BF52
:10C68000704703F00046520043EB030313F4801F8E
:10C6900008BF013DF7D043EA0603704794EA0C0F48
:10C6A0000CEA135518BF95EA0C0F0CD050EA41065E
:10C6B00018BF52EA4306D1D181EA030101F00041DB
:10C6C0004FF0000070BD50EA410606BF1046194603
:10C6D00052EA430619D094EA0C0F02D150EA01360F
:10C6E00013D195EA0C0F05D152EA03361CBF104650
:10C6F00019460AD181EA030101F0004141F0FE41EF
:10C7000041F470014FF0000070BD41F0FE4141F472
:10C71000780170BD70B54FF0FF0C4CF4E06C1CEA72
:10C7200011541DBF1CEA135594EA0C0F95EA0C0F27
:10C7300000F0A7F8A4EB050481EA030E52EA0335E2
:10C740004FEA013100F088804FEA03334FF0805503
:10C7500045EA131343EA12634FEA022245EA111530
:10C7600045EA10654FEA00260EF000419D4208BFE1
:10C77000964244F1FD0404F5407402D25B084FEA8E
:10C780003202B61A65EB03055B084FEA32024FF43A
:10C7900080104FF4002CB6EB020E75EB030E22BF97
:10C7A000B61A754640EA0C005B084FEA3202B6EB57
:10C7B000020E75EB030E22BFB61A754640EA5C0006
:10C7C0005B084FEA3202B6EB020E75EB030E22BF96
:10C7D000B61A754640EA9C005B084FEA3202B6EB97
:10C7E000020E75EB030E22BFB61A754640EADC0056
:10C7F00055EA060E18D04FEA051545EA16754FEAB8
:10C8000006164FEAC30343EA52734FEAC2025FEAD5
:10C810001C1CC0D111F4801F0BD141EA00014FF064
:10C8200000004FF0004CB6E711F4801F04BF014335
:10C830000020B4F1FD0C88BFBCF5E06F3FF6AFAE51
:10C84000B5EB030C04BFB6EB020C5FEA500C50F1E1
:10C85000000041EB045170BD0EF0004E4EEA113164
:10C8600014EB5C04C2BFD4EB0C0541EA045170BD6B
:10C8700041F480114FF0000E013C90E645EA060EAF
:10C880008DE60CEA135594EA0C0F08BF95EA0C0FDD
:10C890003FF43BAF94EA0C0F0AD150EA01347FF425
:10C8A00034AF95EA0C0F7FF425AF104619462CE7FC
:10C8B00095EA0C0F06D152EA03353FF4FDAE10465F
:10C8C000194622E750EA410618BF52EA43067FF4B0
:10C8D000C5AE50EA41047FF40DAF52EA43057FF440
:10C8E000EBAE12E7000000000000000000000000B6
:10C8F0004FF0FF3C06E000BF4FF0010C02E000BF2C
:10C900004FF0010C4DF804CD4FEA410C7FEA6C5C0E
:10C910004FEA430C18BF7FEA6C5C1BD001B050EAB1
:10C92000410C0CBF52EA430C91EA030F02BF90EA9C
:10C93000020F0020704710F1000F91EA030F58BF5B
:10C94000994208BF90422CBFD8176FEAE37040F0BD
:10C95000010070474FEA410C7FEA6C5C02D150EA5B
:10C96000013C07D14FEA430C7FEA6C5CD6D152EA16
:10C97000033CD3D05DF8040B704700BF84461046DB
:10C9800062468C461946634600E000BF01B5FFF7DA
:10C99000B7FF002848BF10F1000F01BD4DF808EDAA
:10C9A000FFF7F4FF0CBF012000205DF808FB00BF7B
:10C9B0004DF808EDFFF7EAFF34BF012000205DF8D5
:10C9C00008FB00BF4DF808EDFFF7E0FF94BF012022
:10C9D00000205DF808FB00BF4DF808EDFFF7CEFF23
:10C9E00094BF012000205DF808FB00BF4DF808ED62
:10C9F000FFF7C4FF34BF012000205DF808FB00BF33
:10CA00004FEA410C7FEA6C5C02D150EA013C0AD14A
:10CA10004FEA430C7FEA6C5C02D152EA033C02D13C
:10CA20004FF0000070474FF0010070470000000019
:10CA30004FEA410212F5001215D211D56FF4787346
:10CA4000B3EB625212D94FEAC12343F0004343EAE9
:10CA5000505311F0004F23FA02F018BF40427047C4
:10CA60004FF00000704750EA013005D111F000404E
:10CA700008BF6FF0004070474FF00000704700BFE4
:10CA80004FEA4102B2F1E04324BFB3F5001CDCF1F0
:10CA9000FE5C0DD901F0004C4FEAC0024CEA507028
:10CAA000B2F1004F40EB830008BF20F00100704757
:10CAB00011F0804F21D113F13872BCBF01F000405A
:10CAC000704741F480114FEA5252C2F11802C2F18C
:10CAD000200C10FA0CF320FA02F018BF40F001000D
:10CAE0004FEAC1234FEAD32303FA0CFC40EA0C00BF
:10CAF00023FA02F34FEA4303CCE77FEA625307D1FC
:10CB000050EA01331EBF4FF0FE4040F44000704732
:10CB100001F0004040F0FE4040F40000704700BFCC
:10CB2000844641EA000313F003036DD1403A41D338
:10CB300051F8043B40F8043B51F8043B40F8043BF7
:10CB400051F8043B40F8043B51F8043B40F8043BE7
:10CB500051F8043B40F8043B51F8043B40F8043BD7
:10CB600051F8043B40F8043B51F8043B40F8043BC7
:10CB700051F8043B40F8043B51F8043B40F8043BB7
:10CB800051F8043B40F8043B51F8043B40F8043BA7
:10CB900051F8043B40F8043B51F8043B40F8043B97
:10CBA00051F8043B40F8043B51F8043B40F8043B87
:10CBB000403ABDD2303211D351F8043B40F8043B27
:10CBC00051F8043B40F8043B51F8043B40F8043B67
:10CBD00051F8043B40F8043B103AEDD20C3205D337
:10CBE00051F8043B40F8043B043AF9D2043208D02F
:10CBF000D2071CBF11F8013B00F8013B01D30B88A1
:10CC000003806046704700BF082A13D38B078DD07E
:10CC100010F003038AD0C3F10403D21ADB071CBF50
:10CC200011F8013B00F8013B80D331F8023B20F8BA
:10CC3000023B7BE7043AD9D3013A11F8013B00F8F3
:10CC4000013BF9D20B7803704B7843708B7883707B
:10CC50006046704700000000000000000000000077
:10CC6000A2EB0300704700BF02780B78012A28BFAF
:10CC70009A42F5D16DE9044540EA0104CDE9026725
:10CC80006FF0000C4FEA447212B380EA010414F012
:10CC9000070F6AD100F0070420F0070004F0030535
:10CCA00021F007014FEAC505F0E8042314F0040F52
:10CCB000F1E804670CFA05F462EA040266EA040685
:10CCC0000AD063EA0403624667EA0407664603E0A3
:10CCD000F0E80423F1E8046782FA4CF582EA0604DE
:10CCE000A4FA8CF46CBB83FA4CF583EA0705A5FA29
:10CCF0008CF595B950E9022351E9026782FA4CF5A7
:10CD000082EA0604A4FA8CF483FA4CF583EA070558
:10CD1000A5FA8CF52543DBD09CB92DBAB5FA85F47C
:10CD200024F0070427FA04F1DDE9026723FA04F38B
:10CD300003F0FF0001F0FF01FDE80445A0EB010056
:10CD4000704724BAB4FA84F424F0070426FA04F1F4
:10CD5000DDE9026722FA04F202F0FF0001F0FF01B0
:10CD6000FDE80445A0EB0100704714F0030F3CD12F
:10CD700010F0030428D150F8082B51F8083B82FA30
:10CD80004CF582EA0305A5FA8CF55DB950F8042C40
:10CD900051F8043C82FA4CF582EA0305A5FA8CF5B9
:10CDA000002DE8D02DBAB5FA85F424F0070423FA53
:10CDB00004F122FA04F202F0FF0001F0FF01FDE8A5
:10CDC0000445A0EB010070474FEAC40420F00300C3
:10CDD00050F8082B21F0030151F8083B0CFA04F439
:10CDE00062EA040263EA0403C9E710F003041AD0FC
:10CDF000A1EB040120F00300E40750F8042B06D057
:10CE00000FD28B785FFAA2F4E41A06D12BB1CB785B
:10CE10005FFAB2F4E41A00D11BB920465DF8104B5A
:10CE2000704701F1040150F8042BCC0721F00301F5
:10CE300051F8043B48D824D222F07F4482FA4CF5C2
:10CE400094EA1325A5FA8CF50AD165B951F8043B8B
:10CE500084EA0204B4EB036F0ED150F8042BEBE725
:10CE60004FEA132355E035F07F454DD10878FDE8B2
:10CE70000445C0F1000070474FEA126203F0FF035F
:10CE800047E002EA1C4482FA4CF594EA1345A5FAFD
:10CE90008CF50AD165B951F8043B84EA0204B4EB7D
:10CEA000034F0CD150F8042BEBE74FEA134330E06B
:10CEB00015EA1C4528D10B884FEA124229E04FEAB7
:10CEC000124203EA1C4324E002F0FF0482FA4CF50C
:10CED00094EA1365A5FA8CF50AD165B951F8043BBB
:10CEE00084EA0204B4EB032F09D150F8042BEBE7DA
:10CEF0004FEA13630DE015F0FF0F05D10B684FEA01
:10CF0000122223F07F4304E04FF00000FDE80445C7
:10CF1000704712BA1BBA82FA4CF482EA0304A4FAEC
:10CF20008CF5B5FA85F402FA04F203FA04F34FEA39
:10CF30001260FDE80445A0EB13607047000000009C
:10CF400090F800F06DE9024520F007016FF0000C49
:10CF500010F0070491F820F040F049804FF00004F1
:10CF60006FF00700D1E9002391F840F000F10800CC
:10CF700082FA4CF2A4FA8CF283FA4CF3A2FA8CF304
:10CF80004BBBD1E9022382FA4CF200F10800A4FA6B
:10CF90008CF283FA4CF3A2FA8CF3E3B9D1E90423BF
:10CFA00082FA4CF200F10800A4FA8CF283FA4CF3F6
:10CFB000A2FA8CF37BB9D1E9062301F1200182FAB0
:10CFC0004CF200F10800A4FA8CF283FA4CF3A2FAB6
:10CFD0008CF3002BC6D0002A04BF04301A4612BAC4
:10CFE000B2FA82F2FDE8024500EBD2007047D1E9C7
:10CFF000002304F00305C4F100004FEAC50514F056
:10D00000040F91F840F00CFA05F562EA05021CBF26
:10D0100063EA050362464FF00004A9E70000000040
:10D0200001F0FF01102A2BDB10F0070F08D010F8D9
:10D03000013B013A8B422DD010F0070F42B3F6D1DD
:10D04000F0B441EA012141EA014122F007047FF0F6
:10D0500000070023F0E80256083C85EA010586EA4D
:10D06000010685FA47F5A3FA87F586FA47F6A5FA89
:10D0700087F68EB9EED1F0BC01F0FF0102F0070295
:10D0800032B110F8013B013A83EA010313B1F8D140
:10D090000020704701387047002D06BF3546033821
:10D0A000073815F0010F07D1013015F4807F02BF5A
:10D0B000013015F4C03F0130F0BC0138704700BFAB
:10D0C0004A0011D212F5001211D20DD56FF4787307
:10D0D000B3EB62520ED44FEAC12343F0004343EA5C
:10D0E000505323FA02F070474FF00000704750EAA7
:10D0F000013002D14FF0FF3070474FF00000704711
:10D1000053B94AB9002908BF00281CBF4FF0FF31AE
:10D110004FF0FF3000F074B9ADF1080C6DE904CEAA
:10D1200000F006F8DDF804E0DDE9022304B0704702
:10D130002DE9F047089E04468846002B4BD18A42D1
:10D14000154667D9B2FA82F24AB1C2F1200701FA54
:10D1500002F320FA07F7954047EA030894404FEAA4
:10D16000154E230CB8FBFEF71FFA85FC0EFB178843
:10D1700043EA084307FB0CF1994209D9EB1807F180
:10D18000FF3080F01B81994240F21881023F2B440E
:10D190005B1AA4B2B3FBFEF00EFB103344EA034467
:10D1A00000FB0CFCA44509D92C1900F1FF3380F0D9
:10D1B0000781A44540F2048102382C4440EA07402C
:10D1C000A4EB0C0400271EB1D4400023C6E90043A1
:10D1D0003946BDE8F0878B4209D9002E00F0EB807C
:10D1E0000027C6E9000138463946BDE8F087B3FAA2
:10D1F00083F7002F47D18B4202D3824200F2FA809C
:10D20000841A61EB030301209846002EE0D0C6E9A2
:10D210000048DDE702B9FFDEB2FA82F2002A40F0F0
:10D220008F80491B4FEA154E1FFA85F80127B1FB85
:10D23000FEFC230C0EFB1C1143EA014308FB0CF11E
:10D24000994207D9EB180CF1FF3002D2994200F253
:10D25000CD808446591AA3B2B1FBFEF00EFB101428
:10D2600043EA044408FB00F8A04507D92C1900F153
:10D27000FF3302D2A04500F2B6801846A4EB0804A2
:10D2800040EA0C409FE7C7F1200CBB4022FA0CFE9D
:10D290004EEA030E01FA07F420FA0CF521FA0CF31A
:10D2A0004FEA1E482543B3FBF8F92C0C08FB193351
:10D2B0001FFA8EFA44EA034309FB0AF49C4202FA7D
:10D2C00007F200FA07F10BD91EEB030309F1FF3057
:10D2D00080F087809C4240F28480A9F10209734467
:10D2E0001B1BADB2B3FBF8F008FB103345EA034457
:10D2F00000FB0AFAA24508D91EEB040400F1FF3333
:10D300006BD2A24569D90238744440EA0940A0FBB7
:10D310000289A4EB0A044C45C2464B4654D351D073
:10D32000002E69D0B1EB0A0564EB030404FA0CFC8F
:10D33000FD40FC404CEA0505C6E90054002747E7DC
:10D34000C2F1200320FA03F7954001FA02F021FA16
:10D3500003F34FEA154E3843010CB3FBFEF71FFAF7
:10D3600085F80EFB173341EA034107FB08F38B42B4
:10D3700004FA02F407D9691807F1FF3C2FD28B4257
:10D380002DD9023F2944CB1A81B2B3FBFEF00EFB2C
:10D39000103341EA034100FB08F38B4207D96918B7
:10D3A00000F1FF3C17D28B4215D902382944C91A23
:10D3B00040EA07473BE73746304609E70746E7E6D6
:10D3C0001846FBE64145ABD2B8EB020A69EB0E0208
:10D3D00001381346A4E76046E9E7184695E7674633
:10D3E000D1E781467CE702382C4447E7ACF1020CD8
:10D3F0002B442FE7384608E73746E9E600000000EF
:10D40000704700BF000000000000000000000000A6
:10D41000704700BF00000000000000000000000096
:10D42000704700BF00000000000000000000000086
:10D43000FEE700BF00000000000000000000000048
:10D44000FEE700BF00000000000000000000000038
:10D45000FEE700BF00000000000000000000000028
:10D46000204B214A2148F0B500249C60DF68204E03
:10D47000204D4FF6FF0139400A43DA60F26842F06E
:10D480008072F2600268202142F0010210260260E0
:10D4900083B0DE7783F8221000F002F900F080F804
:10D4A00000F066FB00F064FE00F0AAFE2846402172
:10D4B00000F006FAA5F1300301229861027784F3A7
:10D4C000118862B69B690C49996105F1500000947E
:10D4D0000A4B4FF4EC7100F04BFA094B836103B037
:10D4E000F0BD00BF00ED00E00003FA05001000E011
:10D4F000F0ED00E0781A002040D9020851D400086D
:10D5000030D9020800000000000000000000000008
:10D5100072B6014BD862FEE7481A002000000000F6
:10D52000F8B5134DAA69D37F0BB1013BD377116ACC
:10D53000EB69104E01311162AA6AB34202F1010295
:10D54000AA6213D09C68013C9C607CB920271A68B1
:10D55000D968DC605660EA6184F3118818698847ED
:10D5600087F31188EB699A68002AF0D0F8BD00BFF4
:10D57000481A0020641A002000000000000000008B
:10D58000034A516853685B1A8342FBD3704700BF5C
:10D59000001000E00000000000000000000000009B
:10D5A000054B4FF0FF3003F11C02002158629962D5
:10D5B000DA611A62704700BF481A002000000000BC
:10D5C00070B40D4EF469A5680361A942C26004D924
:10D5D0002468491BA5688D42FAD3636843600460E0
:10D5E000186060608160A3684FF0FF32591AA16033
:10D5F000726270BC704700BF481A00200000000033
:10D6000003688268416830B49D68064C2A449A6079
:10D610000B60056800224FF0FF336960C2606362EF
:10D6200030BC7047481A00200000000000000000D5
:10D6300010B4202383F31188037F072B0ED8DFE873
:10D6400003F0270D0D2308040D08426A9368013387
:10D65000936090E80C001A60026853604FF0FF344A
:10D66000002281680D4B446202771B689A688A42E7
:10D67000FBD25A684260036000211060586081F359
:10D6800011885DF8044B7047436A00221A60E5E791
:10D69000002383F311885DF8044B7047481A00207B
:10D6A000034B00221B605B601B615B619A607047EB
:10D6B000481A0020000000000000000000000000E8
:10D6C00000228168084B10B4044602771B689A68F0
:10D6D0008A42FBD25A6862602360204614605C6014
:10D6E0005DF8044B704700BF481A0020000000009E
:10D6F000084B99691A6810B408770420C877106835
:10D70000186001244360147710465DF8044B9A6159
:10D71000FEF7FEBC481A00200000000000000000D8
:10D7200030B54B1C87B012D00C4C0D4AA36905468E
:10D7300001A8FFF745FF2846FFF7DAFF049B13B166
:10D7400001A8FFF75DFFA369586A07B030BD034C1D
:10D75000FFF7CEFFA369586A07B030BD481A002012
:10D7600031D60008000000000000000000000000AA
:10D77000144B70B404469D694162A868A168814257
:10D780004FF000020BD822771B689A689142FBD9B0
:10D790005A686260236014605C6070BC70472A77CE
:10D7A0001A46126891688842FBD950686860012661
:10D7B0002A60056055602677294620469C6170BC2A
:10D7C000FEF7A6BC481A0020000000000000000080
:10D7D000084B9A691B68D17F9B68906821B9834286
:10D7E00034BF002001207047834294BF00200120F5
:10D7F000704700BF481A0020000000000000000031
:10D800000E4A1068036870B4012194695A600426B6
:10D8100001770025A16813609061E677257700E025
:10D820001B689A688A42FBD25A686260236021466C
:10D8300014605C6070BCFEF76BBC00BF481A00202F
:10D840000D4A1068036830B4012194695A600025BC
:10D850000177A16813609061257700E01B689A68E2
:10D860008A42FBD85A6862602360214614605C607B
:10D8700030BCFEF74DBC00BF481A0020000000007D
:10D88000044B1A689B6992689B689A4200D870475B
:10D89000FFF7D6BF481A002000000000000000007B
:10D8A000034B9B69DB7F0BB1FFF7CABFFFF7A8BF34
:10D8B000481A0020000000000000000000000000E6
:10D8C000F0B50F4C0164656981600226002206777D
:10D8D00000F12C014FF0040E012700F128064561EC
:10D8E000046180F81FE087774277C2638263026237
:10D8F0008261286160618662C1620163F0BD00BF20
:10D90000481A002000000000000000000000000095
:10D910006439F0B50144124E124D7769C1600B6451
:10D92000059B4B6402230D664FF0040E8260026477
:10D93000037700F12C020023012500F12801066184
:10D94000476180F81FE085774377C3638363036291
:10D950008361386181627061C2620263F0BD00BFA1
:10D96000481A002029C10008000000000000000043
:10D97000F8B51D460446202383F311886439014419
:10D98000134E144B7769C1600D64069D4D640B66A0
:10D9900002250423826002640577C377002500F125
:10D9A0002C0300F128020121817706614761457748
:10D9B000C563856305628561294638618262C362F9
:10D9C00003637061FFF7D4FE85F311882046F8BD2C
:10D9D000481A002029C100080000000000000000D3
:10D9E00008B50146202383F311880820FFF798FE2D
:10D9F000002383F3118808BD000000000000000030
:10DA000038B50E4B9C69A36A606204F128059D42FB
:10DA100007D01A68A2621846FFF752FEA36AAB420B
:10DA2000F7D1637F9B0704D1636922691A61226978
:10DA300053610F20BDE83840FFF75ABE481A002056
:10DA4000202383F31188FFF7DBBF00BF0000000035
:10DA500010B5054CA369036002465A620320FFF724
:10DA600047FEA369586A10BD481A00200000000054
:10DA7000054B02469B6921B1036003205A62FFF700
:10DA80004FBE4FF0FF307047481A002000000000E2
:10DA900003682BB10022026018465962FFF710BEDE
:10DAA000704700BF00000000000000000000000000
:10DAB00069B1084B10B4024644689B69042083E8AE
:10DAC0001400236053605DF8044BFFF729BE4FF04C
:10DAD000FF307047481A00200000000000000000DE
:10DAE00038B5036898420BD004460D461A68226088
:10DAF000184654605D62FFF7E3FD23689C42F5D150
:10DB000038BD00BF00000000000000000000000061
:10DB1000014B5B6883607047001000E0000000006C
:10DB20000F4B10495A688368F0B48F6FC66841681C
:10DB3000D0E90445D31ADB1BE41845F10005013692
:10DB40008B42C6608360C0E9044505D802689342F1
:10DB500038BF0360F0BC70474360F0BC704700BF43
:10DB6000001000E0481A0020000000000000000043
:10DB7000D0B50C4C86B000234FF0FF32684600262B
:10DB80000027A3670193029303930092CDE90467F2
:10DB9000FFF7BEFF6846FFF7C3FF029BA36706B00F
:10DBA000D0BD00BF481A00200000000000000000A7
:10DBB0000146202383F31188837F013BDBB2837707
:10DBC000002282F3118813B9037F0F2B00D0704716
:10DBD000437F03F00303012B02D0022B07D07047D1
:10DBE000436902691A610269536100F019BB436914
:10DBF00002691A610269406C536100F089BB00BF81
:10DC0000202383F31188044B1869837F01338377C2
:10DC1000002383F311887047481A00200000000099
:10DC200010B5202383F31188074B04699C421DBF64
:10DC3000A37F0133A3770024002383F31188FFF728
:10DC4000B7FF204610BD00BF481A002000000000AA
:10DC50000023006040608360704700BF0000000048
:10DC6000304B826870B59C69002A55D0A1689368D2
:10DC70008B42054606D2137F9160062B33D0072BCB
:10DC80001DD09BB12B4603E09968A268914202D354
:10DC90001B689D42F8D15A686260236014605C6022
:10DCA00065620620BDE87040FFF722BD92E80A00D9
:10DCB0001960116810464B60FFF702FDE2E792E839
:10DCC0000900186010684360566A334602E098689D
:10DCD000884202D31B689E42F9D159685160136093
:10DCE0000A605A60CEE792E8090018601068436045
:10DCF000566A334602E09868884202D31B689E4207
:10DD0000F9D15968516013600A605A60B268A1681D
:10DD100093688B42AFD3B5E7E36BC3608460E06385
:10DD200070BD00BF481A0020000000000000000085
:10DD300008B5202383F31188FFF792FF002383F3B4
:10DD4000118808BD00000000000000000000000075
:10DD5000174B70B59D69202383F311880468C3684D
:10DD6000EB6384421DD0296C4BB11A68934203D0F7
:10DD70009268914238BF1146DB68002BF5D103460B
:10DD80002268E66BA96020461A6053609C60DE60E2
:10DD9000E363FFF795FCFFF773FD002383F311881E
:10DDA00070BD0023A360002383F3118870BD00BF02
:10DDB000481A0020000000000000000000000000E1
:10DDC00030B4202484F31188064D0468AD690C60DA
:10DDD000002401604D608A600B61CC6084F311887F
:10DDE00030BC7047481A002000000000000000000E
:10DDF000202383F31188024602E08B4207D01A46A3
:10DE000013689842F9D1002383F3118870470B6897
:10DE10001360002383F31188704700BF00000000E7
:10DE2000836B027F19430A2A816309D00B2A00D031
:10DE30007047436A8B43FBD100234362FFF740BC2A
:10DE4000436A1942F8D1704700000000000000004A
:10DE500070B50468A0420FD006460D46E3682B4318
:10DE6000E36015B12269134203D0A1686068FFF72F
:10DE7000D7FF2468A642F1D170BD00BF00000000AA
:10DE800008B5202383F31188FFF7CAFFFFF7F8FCDA
:10DE9000002383F3118808BD00000000000000008B
:10DEA00038B50C4B9D69202383F31188AB6B13EAC3
:10DEB000000406D1044668620A20FFF719FCAB6B28
:10DEC0001C4023EA0403AB63002383F3118820463C
:10DED00038BD00BF481A002000000000000000000C
:10DEE000124B70B59E69202383F31188B36B13EA3C
:10DEF00000040ED119B981F31188084670BD706213
:10DF000005460A20FFF70CFC00280ADBB36B05EA84
:10DF1000030423EA0403B363002383F31188204638
:10DF200070BD84F31188204670BD00BF481A0020E0
:10DF300030B4029C046200250A44856002610060DE
:10DF40004060C16081614161C36130BC704700BF06
:10DF50000021C2688160826142616FF00101FFF7B8
:10DF6000BFBD00BF00000000000000000000000076
:10DF700070B520230E46044683F31188C3692BB184
:10DF8000984703E0FFF794FD002815DBA5683146AC
:10DF90002046002DF6D0A169A36825694A1C013BE3
:10DFA000AA42A360A26128BFE368087828BFA361E2
:10DFB000002383F3118870BD85F3118870BD00BF05
:10DFC0002DE9F04F044683B0894693461D46D0F8AC
:10DFD0001C80202787F3118800260197B246B8F1EC
:10DFE000000F05D02046C04702E0FFF761FDE0B911
:10DFF000A76829462046002FF7D0A269A368511CC4
:10E00000013BA161A360137809F8013B2369A26970
:10E010009A4224BFE368A3618AF311880136B345AD
:10E0200005D0019B83F31188D9E787F31188304627
:10E0300003B0BDE8F08F00BF00000000000000004A
:10E0400030B4029C04628D180561006040608260FB
:10E05000C16081614161C36130BC70470000000054
:10E0600010B40269C4688461121B44616FF001013D
:10E0700082605DF8044BFFF733BD00BF0000000075
:10E08000F8B504460F461646202383F3118803E0B3
:10E09000FFF70EFD002819DBA56831462046002D4C
:10E0A000F6D06269A368511C013B6161A3601770DF
:10E0B000236962699A4224BFE3686361E3690BB133
:10E0C00020469847002080F31188F8BD85F3118819
:10E0D000F8BD00BF000000000000000000000000CC
:10E0E0002DE9F04F83B004460D4616460193D0F853
:10E0F0001C804FF0200989F311880027BA46A368D5
:10E1000005F1010B204603B36169A3684A1C013B7A
:10E110006261A3602B780B7023696169994224BF07
:10E12000E3686361B8F1000F00D0C0478AF311883B
:10E13000013E07F1010712D089F31188A3685D46FB
:10E1400005F1010B2046002BDED1019900932046FA
:10E15000FFF7AEFC009B0028D1D083F3118838462E
:10E1600003B0BDE8F08F00BF000000000000000019
:10E17000054A064B0648074922F0070223F0070329
:10E1800002600B60704700BFEF1C012000000220FE
:10E19000A41C0020A01C00200000000000000000C3
:10E1A00010B4202383F31188094C0A4B22681968A4
:10E1B000C31D23F00703891A8B429DBF9B18236060
:10E1C00010460020002383F311885DF8044B70474C
:10E1D000A41C0020A01C0020000000000000000083
:10E1E000024A034B10681B68C01A7047A01C00202D
:10E1F000A41C00200000000000000000000000003F
:10E20000044B054A1A6003F1100000229A60DA609C
:10E21000FFF71EBDA81C0020A1E1000800000000BF
:10E22000F8B550F8085C05F110070646A0F108049F
:10E2300008353846FFF77CFD2B46AB4204D0A3429D
:10E2400002D31B68AB42FAD11A681AB1944201D3C7
:10E250001346F2E746F8082C1C6056F8041C56F8E2
:10E26000085C01F10802A018A8420AD0596801F11F
:10E2700008021A44944212D03846BDE8F840FFF72D
:10E2800067BD40680144083146F8041CA25846F8AE
:10E29000082C596801F108021A449442ECD156F84E
:10E2A000042C0A4408325A6056F8082C1A60384682
:10E2B000BDE8F840FFF74CBD000000000000000082
:10E2C00070B50F4C002818BF044604F1100528460D
:10E2D0000E46FFF72DFDA36873B10022144658685F
:10E2E0001B6801340244002BF9D106B13260284684
:10E2F000FFF72EFD204670BD1A461C46F5E700BF0D
:10E30000A81C002000000000000000000000000029
:10E31000202383F3118803680B600023016083F3DB
:10E32000118870470000000000000000000000009D
:10E33000064A536823F001035360EFF309836833FF
:10E3400083F30988002383F31188704730EF00E0DE
:10E35000202383F31188124B5B6813F4006302D10E
:10E3600083F31188704710B5F1EE103AEFF309848A
:10E370000C4B4FF08072DB6844F8083C44F84C2C9E
:10E38000A4F1680383F30988FFF722FA18B1064B5A
:10E3900044F8503C10BD054B44F8503C10BD00BF44
:10E3A00000ED00E030EF00E039C100083CC100089A
:10E3B00008B501F01DF90B4801F07AFC00F020F8D7
:10E3C00000F0C6F800F03CF900F042FB00F050FB12
:10E3D00000F08EFB00F02CFA03F0F2F9BDE80840E3
:10E3E00000F006B8D0DA02080000000000000000CB
:10E3F00001F0A6B9000000000000000000000000CD
:10E4000001F00EBB00000000000000000000000052
:10E4100030B40021012400F1180200F11C0300F1C6
:10E4200020050470416000F1240400F1280182619C
:10E43000C36100F1080200F11003C0E908548162D1
:10E44000C0E90222C0E9043330BC7047000000007C
:10E4500010B52023044683F3118802230370416022
:10E4600001F0F6FA03232370002383F3118810BD13
:10E4700010B52023044683F3118801F021FB2046C8
:10E48000012300F8103B6FF00101FFF729FB04F1B5
:10E4900008006FF00101FFF723FBFFF7F1F90023FC
:10E4A00083F3118810BD00BF0000000000000000D1
:10E4B0002DE9F0411F4604460D469046202383F384
:10E4C000118800F108062378042B2946204602D043
:10E4D00001F01EFB50B939463046FFF7E9FA002833
:10E4E000F1D0002383F31188BDE8F0812046424635
:10E4F000294601F02DFB002080F31188BDE8F08152
:10E500002DE9F0411F4604460D469046202383F333
:10E51000118800F110062378042B2946204602D0EA
:10E5200001F04EFB50B939463046FFF7C1FA0028DA
:10E53000F1D0002383F31188BDE8F08120464246E4
:10E54000294601F05DFB002080F31188BDE8F081D1
:10E5500001F02EBE000000000000000000000000DE
:10E5600001220023027043600C30FFF771BB00BF33
:10E5700010B52023044683F31188416001F030FE7A
:10E5800002232370002383F3118810BD00000000D4
:10E5900010B52023044683F3118801F0D9FE01232E
:10E5A0002370002383F3118810BD00BF000000001A
:10E5B000F0B585B00446DDE90B674FF0200C8CF315
:10E5C00011884FF0030CCDE9016700250A9E0096E3
:10E5D000856080F800C001F043FF431C0CBF052399
:10E5E00002232370002383F3118805B0F0BD00BF20
:10E5F000F0B583B00446089F202585F311880026D6
:10E60000042500978660057001F0EAFE431C0CBFEC
:10E61000052302232370002383F3118803B0F0BD88
:10E620000C30FFF785BB00BF0000000000000000B9
:10E630000C30FFF78DBB00BF0000000000000000A1
:10E6400002F0CEBD0000000000000000000000004D
:10E650000122002302704360704700BF00000000E9
:10E6600010B52023044683F31188416002F0C8FDF1
:10E6700002232370002383F3118810BD00000000E3
:10E6800010B52023044683F3118802F019FE0123FC
:10E690002370002383F3118810BD00BF0000000029
:10E6A00010B52023044683F3118802F029FE0323CA
:10E6B0002370002383F3118810BD00BF0000000009
:10E6C00008B5202383F3118802F02AFE002383F388
:10E6D000118808BD000000000000000000000000DC
:10E6E00010B5046AD4F8542213681978042900D0AC
:10E6F00010BD217A0229FBD111791A8901238B409F
:10E700001A40F5D1D4E90F03A16B1B1A5B1AEFD0A5
:10E7100082F31188D4F854221179106804F1300280
:10E7200000F04EFA202383F31188D4F85432BDE868
:10E7300010401979186800F06BBA00BF00000000A3
:10E7400038B5046AD4F8542213681978042900D023
:10E7500038BD217A0229FBD15079598901228240A2
:10E760000A40F5D103EB8003A169E069DB686569C4
:10E770005B8A411A491B8B42EAD882F31188B1FBAC
:10E78000F3F1D4F8542203FB01F31068517904F13A
:10E790000C0200F005FA202383F31188D4F85432D8
:10E7A00059791868BDE8384000F01ABA0000000036
:10E7B0000C30FFF705BC00BF0000000000000000A7
:10E7C0000C304FF0FF33FFF7FBBB00BF0000000031
:10E7D0003030FFF785BC00BF0000000000000000E3
:10E7E00030304FF0FF33FFF77BBC00BF000000006C
:10E7F0000C30FFF7BDBB00BF0000000000000000B0
:10E800000C304FF0FF31FFF7B3BB00BF000000003A
:10E810003030FFF735BC00BF0000000000000000F2
:10E8200030304FF0FF32FFF72BBC00BF000000007C
:10E83000704700BF00000000000000000000000062
:10E8400010B503460E4A43F8042B82B00122044659
:10E85000009000F15401436002720A4B0C304FF4F7
:10E860008072FFF765FB009404F5AA7104F1300093
:10E87000054B4FF48072FFF7E3FB02B010BD00BF01
:10E8800060D9020841E70008E1E600080000000046
:10E890000B68202282F311880A7903EB82029061CF
:10E8A0004A79093243F822008A7912B103EB8203D4
:10E8B000986102230372C0F85412002383F3118875
:10E8C000704700BF000000000000000000000000D2
:10E8D00070B5D0F8543200F10C06044630461D687D
:10E8E000FFF736FB04F13000FFF7BAFB201D0121D2
:10E8F000FFF7AEFAD4F85432597905EB8103284674
:10E90000DB6832465B8A00F04BF9D4F85432284673
:10E910005979BDE8704000F063B900BF0000000005
:10E9200090F8443003F06003202B01D000207047A2
:10E9300090F84530202BF9D3212B07D8074B836360
:10E9400007220023C0E90F2301207047222BEDD1BD
:10E950000023C0E90E33036401207047001000203B
:10E96000F8B500EB81039C694CB30E4605462027A1
:10E9700087F311880821201DFFF76AFAD4E90F13E5
:10E98000A26B5B1A9B1A1BD105EB8603DB685A69E5
:10E9900052688AB11B8A013B13400DD183F3118861
:10E9A00004F130023146284600F00AF987F3118855
:10E9B0003146284600F02CF9002383F31188F8BD76
:10E9C000002282F31188EBE7000000000000000045
:10E9D00001F109032DE9F04150F82340BCB107468D
:10E9E0000E464FF0200888F3118804216018FFF7C5
:10E9F0002FFA07EB8603E569D968A2696369498A3A
:10EA0000AA1AD21A914204D9002383F31188BDE8CF
:10EA1000F081002383F31188B2FBF1F3384601FB48
:10EA200003F304F10C02314600F0BAF888F31188C0
:10EA30003146384600F0D4F8E6E700BF0000000099
:10EA4000704700BF00000000000000000000000050
:10EA500002F04EBB000000000000000000000000BB
:10EA6000012200230270C0E901330C30FFF7F0B837
:10EA700002F06EBD00000000000000000000000079
:10EA8000002301220270437083704360704700BF0F
:10EA900010B52023044683F31188416002F080FD05
:10EAA00002232370002383F3118810BD00000000AF
:10EAB00010B52023044683F3118802F019FE0023C9
:10EAC000012222706370A37083F3118810BD00BF10
:10EAD00010B52023044683F3118802F039FE012388
:10EAE0006370002383F3118810BD00BF0000000095
:10EAF00001F006BF00000000000000000000000060
:10EB0000002301220270C36183620362C362436215
:10EB10000363C0E9013370470000000000000000FB
:10EB200038B50446202383F3118800254160C0E9ED
:10EB30000355C0E9055501F0FBFE0223237085F360
:10EB4000118838BD00000000000000000000000037
:10EB500010B52023044683F3118801F061FF0123DF
:10EB60002370002383F3118810BD00BF0000000054
:10EB7000536910B42BB100241C605C609C60DC60A5
:10EB80001C6193692BB100241C605C609C60DC609C
:10EB90001C6100EB81035DF8044BDA6001F0D8BF23
:10EBA00030B400EB81040125E468A469E26000222E
:10EBB00063602570A26030BC02F0B2B800000000B3
:10EBC00030B400EB81040125E4686469E26000224E
:10EBD00063602570A26030BC02F012B90000000032
:10EBE000012270B502FA01F344899BB214EA0306CC
:10EBF00001D0104670BD2343438102F011FA304624
:10EC000070BD00BF00000000000000000000000018
:10EC1000012270B502FA01F304899BB214EA0306DB
:10EC200001D0104670BD2343038102F009FA30463B
:10EC300070BD00BF000000000000000000000000E8
:10EC4000002202210170C264C0E90222C0E904224C
:10EC5000826180F8342001F00BBF00BF000000008B
:10EC600070B50023044680F8343000F1440202F00D
:10EC700047F863689B68002B33D02046984780B3E1
:10EC8000E16B94F8443094F84B0094F84A2042EA3F
:10EC900000228A422CBF0A46E2631806E16800F1AE
:10ECA0009980002A7BD08B69A06B0021042584F811
:10ECB0003450D8605A6019709960204602F030F8DC
:10ECC000202383F31188638913F0010105D143F0F8
:10ECD00001036381204602F0A3F9002383F3118826
:10ECE00070BD94F8443013F06005184611D000212F
:10ECF000204602F0CDF90021204602F0B9F9636800
:10ED00001B6813B1052120469847062384F8343048
:10ED100070BD94F8451003F07F0242EA0122B2F57B
:10ED2000407F00F0148117D9B2F5C06F00F0F68073
:10ED300040F29980B2F5106F73D040F602418A42DA
:10ED400000F0D280B2F5006FD1D104F14F02012161
:10ED50002564C4E90E2196E7022A00F0AB8040F258
:10ED6000A180B2F5807F6FD0B2F5817FBFD194F8DA
:10ED70004630002BBBD194F8483013F00F0107D078
:10ED80001E06204600F1FB8002F092F994F8440040
:10ED90000023C4E90E3323640306E16836D44A69CC
:10EDA0000023052184F83410204619461370D360DF
:10EDB000C2E9013302F024F8202383F31188238968
:10EDC00013F0010189D143F001032381204602F0B1
:10EDD00037F982E7D2B14B69A06B0021012584F895
:10EDE0003450D8605A6019709960204602F008F8D3
:10EDF000202383F31188238913EA05017FF46DAF83
:10EE00002B432381204602F01BF966E78A69002321
:10EE1000032184F8341019461370D360C2E901331A
:10EE20004BE794F8463084F84F30002B40F09E803A
:10EE30000323237063681B68002BA9D0204602219E
:10EE4000984794F84400A3E794F84630012B7FF4E8
:10EE50004EAFB4F84C30A56323F00203C4E90F555C
:10EE6000A4F84C3098E740F202339A4243D0B2F50E
:10EE7000A06F7FF43CAFB4F84430B3F5A06F87D1F6
:10EE800094F8463084F84E30204601F051FE636815
:10EE90001B6813B1012120469847032394F84400CE
:10EEA000237075E7EAB904F14C0002212264C4E939
:10EEB0000E01E8E694F8483003F00F011B062046E7
:10EEC00057D401F0FDFE012857D002287FF40FAF80
:10EED000304BA36302210023C4E90F1394F844309C
:10EEE000D1E6012A7FF403AF2B4AA263022100225C
:10EEF000C4E90F12C7E694F84630002B7FF4F7AE52
:10EF000094F8483013F00F013FF442AF1D0620463D
:10EF10003AD402F0ADF894F8440039E794F8490087
:10EF2000616894F848304E6894F8462094F8471089
:10EF300043EA00232046B04700283FF4D8AED0E98A
:10EF400000132564C4E90E3194F844309BE694F82C
:10EF50004630012B7FF4CBAEB4F84C30A56343F0C0
:10EF60000203C4E90F55A4F84C3015E704232370BD
:10EF700060E701F0B5FE0128A7D1084BA9E702F030
:10EF8000A7F894F8440003E702F082F894F84400EC
:10EF9000FEE600BF80D90208A0D9020890D9020875
:10EFA00090F8343010B50446062B23D8DFE803F080
:10EFB000582A045858235800C3689A69032100232B
:10EFC00084F83410204619461370D360C2E9013327
:10EFD00001F0A6FE202383F31188638913F0010159
:10EFE00005D143F001036381204602F019F80023A4
:10EFF00083F3118810BD036C03B19847002384F894
:10F00000343010BD90F84B0094F84A20E16BE3686F
:10F0100042EA00229142D0D2188AB1FBF0F200FB02
:10F020001212002AC9D15B6911461A70DA60C3E96D
:10F030000122204601F0E4FE202383F31188238976
:10F0400013F0010105D143F001032381204601F0B3
:10F05000F7FF002383F31188022384F8343010BDB6
:10F06000002102F015F80021204602F001F8636843
:10F070001B6813B1052120469847062384F83430D5
:10F0800010BD00BF000000000000000000000000F4
:10F0900090F83420062A14D80123934013F0670F08
:10F0A00010B5044627D113F008020BD0C3689B6942
:10F0B0009B682BB9036C03B19847002384F8343064
:10F0C00010BD7047DB06FBD5C3685B69052180F87E
:10F0D00034101A70DA60C3E90122114601F090FE83
:10F0E000202383F31188238913F0010114D0002316
:10F0F00083F3118810BD002101F0CAFF00212046D2
:10F1000001F0B6FF63681B6813B1052120469847DC
:10F11000062384F8343010BD43F0010323812046D8
:10F1200001F08EFFE3E700BF0000000000000000D8
:10F13000430910B49B0000F1604404F5614403F1FD
:10F140006043090103F5614300F01F000122C9B2C9
:10F1500084F8001302FA00F0C3F880015DF8044B54
:10F160001860704700000000000000000000000070
:10F170000849430910B4203300F01F040122084459
:10F18000A240002441F8232080F800435DF8044B9E
:10F19000704700BF00E100E0000000000000000038
:10F1A00000F1604000F56D400901C9B20176704779
:10F1B00008B5074B074A196801F03D0199601368CB
:10F1C0000BB150689847BDE80840FFF7C1B800BFD1
:10F1D00000600240C81C0020000000000000000089
:10F1E000084B094819688268890901F03D0110B58A
:10F1F0008C019C600AB1C0689047BDE81040FFF7E1
:10F20000A7B800BF00600240C81C0020000000003A
:10F21000084B094819680269090C01F03D0110B555
:10F220000C049C600AB140699047BDE81040FFF7AC
:10F230008FB800BF00600240C81C00200000000022
:10F24000084B094819688269890D01F03D0110B524
:10F250008C059C600AB1C0699047BDE81040FFF77B
:10F2600077B800BF00600240C81C0020000000000A
:10F2700008B5074B07485968026A01F03D01D9609B
:10F280000AB1406A9047BDE80840FFF761B800BF87
:10F2900000600240C81C00200000000000000000C8
:10F2A000084B09485968826A890901F03D0110B587
:10F2B0008C01DC600AB1C06A9047BDE81040FFF7DE
:10F2C00047B800BF00600240C81C002000000000DA
:10F2D000084B09485968026B090C01F03D0110B553
:10F2E0000C04DC600AB1406B9047BDE81040FFF7AA
:10F2F0002FB800BF00600240C81C002000000000C2
:10F30000084B09485968826B890D01F03D0110B521
:10F310008C05DC600AB1C06B9047BDE81040FFF778
:10F3200017B800BF00600240C81C002000000000A9
:10F3300008B5074B07481968026C01F03D01996058
:10F340000AB1406C9047BDE80840FFF701B800BF24
:10F3500000640240C81C0020000000000000000003
:10F36000084B09481968826C890901F03D0110B504
:10F370008C019C600AB1C06C9047BDE81040FEF75C
:10F38000E7BF00BF00640240C81C0020000000006E
:10F39000084B09481968026D090C01F03D0110B5D0
:10F3A0000C049C600AB1406D9047BDE81040FEF728
:10F3B000CFBF00BF00640240C81C00200000000056
:10F3C000084B09481968826D890D01F03D0110B59F
:10F3D0008C059C600AB1C06D9047BDE81040FEF7F7
:10F3E000B7BF00BF00640240C81C0020000000003E
:10F3F00008B5074B07485968026E01F03D01D96016
:10F400000AB1406E9047BDE80840FEF7A1BF00BFBB
:10F4100000640240C81C0020000000000000000042
:10F42000084B09485968826E890901F03D0110B501
:10F430008C01DC600AB1C06E9047BDE81040FEF759
:10F4400087BF00BF00640240C81C0020000000000D
:10F45000084B09485968026F090C01F03D0110B5CD
:10F460000C04DC600AB1406F9047BDE81040FEF725
:10F470006FBF00BF00640240C81C002000000000F5
:10F48000084B09485968826F890D01F03D0110B59C
:10F490008C05DC600AB1C06F9047BDE81040FEF7F4
:10F4A00057BF00BF00640240C81C002000000000DD
:10F4B0000E490F4A0F48002310B40B600E4C19463A
:10F4C00001E052F80C0C016044F833100133102BAA
:10F4D00002F10C02F5D10949094A5DF8044B4FF0DD
:10F4E000FF338B60CB609360D3607047481D002072
:10F4F000BCD9020810600240C81C00200060024015
:10F500000064024000000000000000000000000055
:10F51000F8B5204F467AD7F800C0012404FA06F562
:10F5200015EA0C0F33D11C4C45EA0C0504EBC60C54
:10F5300015F0FF0F3D6044F83620CCF8043004D0BD
:10F54000164C236B43F40013236315F47F4F16D13D
:10F5500005682B6823F01F032B602C6814F001044E
:10F56000FBD1077A46683D23BB40212733602C60DE
:10F570006F6152B1807AFFF7DBFD2046F8BD074C82
:10F58000236B43F480032363E2E71046F8BD204673
:10F59000F8BD00BF481D0020C81C002000380240F4
:10F5A00010B50446807AFFF7E3FD0C49607A0B68DA
:10F5B0000122824023EA020313F0FF0F0B6004D103
:10F5C00007490A6B22F400120A6313F47F4F04D137
:10F5D000034A136B23F48003136310BD481D0020FE
:10F5E00000380240000000000000000000000000A1
:10F5F000174B4FF0FF311A69002210B419611A61DC
:10F60000586959615A61186A124C60F0805018624A
:10F610001A62586A59625A62196C41F08051196431
:10F62000216841F480712160196F01F44071B1F5D6
:10F63000007F03D04FF4803119671A67054A5DF8DF
:10F64000044B536823F400735360FFF731BF00BFCE
:10F650000038024000700040000000000000000080
:10F660002A4B2B4A4FF080504FF4404118641160F0
:10F670001A6842F001021A601A689207FCD599686C
:10F68000224A21F00301996099689960936813F008
:10F690000C03FBD110681D4900F0F9001060936065
:10F6A000136843F4803313600B689803FCD54B6FE9
:10F6B000164A43F001034B67536F9907FCD5154B6E
:10F6C00053601368124943F0807313604B685A0407
:10F6D000FCD50E490B689B01FCD50F4B0F4A8A6085
:10F6E00040F205721A608B68084A43F002038B608F
:10F6F000936803F00C03082BFAD1536C43F4804356
:10F700005364536E43F4804353667047003802409D
:10F710000070004008544007003C02400094083844
:10F7200008B5202383F31188FDF7FAFE002383F345
:10F730001188BDE80840FEF70BBE00BF00000000C6
:10F74000054B44F29F110020072259609860082160
:10F750000B201A60FFF724BD10E000E0000000005D
:10F76000F0B4444D444C2B6C43F000732B64D4F83C
:10F7700000321B0C1B0443F0010343EA0023C4F8CE
:10F78000003200295BD00023C4F81C321846C4F8AC
:10F790000432C4F80C32C4F814321C46C30003F11E
:10F7A000804303F5C84301301C28C3F84042C3F826
:10F7B0004442F3D1304D0026012710681479C3006C
:10F7C00003F1804314F0010F03F5C84306F101066D
:10F7D00007FA00F005D0D5F804C24CEA000CC5F8D1
:10F7E00004C214F0020F05D0D5F80CC24CEA000C8C
:10F7F000C5F80CC2640704D5D5F814420443C5F813
:10F8000014429468C3F84042D468C3F84442D5F81F
:10F810001C32B14240EA030002F11002C5F81C029A
:10F82000CBD11549134AD1F8003223F00103C1F8B6
:10F830000032136C23F000731364F0BC7047C200F5
:10F8400002F18042012302F5C842834043F00103E4
:10F85000C4F84012C4F84412C2F84012C2F844126C
:10F86000C4F80412C4F81412C4F80C32C4F81C32E0
:10F87000D7E700BF003802400064004000000000ED
:10F8800010B50C4C0C49E26A2023916083F3118877
:10F89000002104F10800FEF723F904F11C00012106
:10F8A000FEF7D6FA002383F31188BDE81040FEF777
:10F8B0004FBD00BF4C1D00200101010000000000F1
:10F8C00038B5164CE36ADD68AA0711D1EB060BD5F3
:10F8D000E36A1021D960202383F311881048FEF7D2
:10F8E000B7FA002383F31188BDE83840FEF730BD36
:10F8F0005A6922F002025A61202383F31188002101
:10F9000004F11000FEF7ECF804F118000121FEF7F5
:10F910009FFA002383F31188D8E700BF4C1D002015
:10F920006C1D00200000000000000000000000002E
:10F9300038B5164CE36A1D69AA0711D1EB060BD541
:10F94000E36A10211961202383F311881048FEF720
:10F950007FFA002383F31188BDE83840FEF7F8BC36
:10F960005A6922F010025A61202383F31188002182
:10F9700004F11000FEF7B4F804F118000221FEF7BC
:10F9800067FA002383F31188D8E700BF4C1D0020DD
:10F990006C1D0020000000000000000000000000BE
:10F9A00038B51B4DEB6A5C681C225A6022071DD4D7
:10F9B000630717D5EA6A9369916921F07001916133
:10F9C00013F0700F03F0070118BF41F00801202267
:10F9D00082F311880F4841EA0341FEF739FA002308
:10F9E00083F31188BDE83840FEF7B2BC1A68284698
:10F9F00022F00202032100F8281B20211A6081F363
:10FA000011880021FEF724FA002383F31188CFE741
:10FA10004C1D00206C1D00200000000000000000B4
:10FA200010B5064C2046FEF7F3FC0022044BE362BF
:10FA300011460E20BDE81040FFF792BE4C1D00207D
:10FA40000064004000000000000000000000000012
:10FA5000184B984210B5044615D0E36A01221A608B
:10FA60005A68D10707D401210820FDF759FEE36A3F
:10FA70005A68D207F7D562680F49D2E90020D861E9
:10FA80001A60596110BD0B211320FFF751FB0B21A8
:10FA90001420FFF74DFB0B211520FFF749FB0B212D
:10FAA0001620FFF745FB054A136C43F000731364FF
:10FAB000D3E700BF4C1D00205B8F010000380240DF
:10FAC00008B50378032B00D008BD0D4B9842FBD13D
:10FAD0000C4B0D4A1A6000225A611320FFF748FBB5
:10FAE0001420FFF745FB1520FFF742FB1620FFF718
:10FAF0003FFB064A136C23F00073136408BD00BF7C
:10FB00004C1D00200064004002000100003802404B
:10FB100003291AD8DFE801F0110C0702C36A9868BC
:10FB2000C0F300707047C36A9868C0F3C060704744
:10FB3000C36A9868C0F380607047C36A9B6813F01B
:10FB4000E05F14BF0120002070470020704700BF15
:10FB5000032934D8DFE801F0232B1F02C16A01F525
:10FB6000D071107810B4C0F3001384064FEA430339
:10FB700021D5546843EAC40343F00403D2E90242A6
:10FB800000F00F0043F0010348608C60CA605DF82C
:10FB9000044B0B607047C16A01F5C871E1E7C16AA7
:10FBA0008B68C3F30163183301EB0311D9E7C16A12
:10FBB00001F5C071D5E7948843EA4453DEE7704706
:10FBC000012911D00AD3022906D1C36A186910F09D
:10FBD000030018BF0120704700207047C36ADA682D
:10FBE0009207F3D001207047C36AD86810F0030071
:10FBF00018BF0120704700BF000000000000000097
:10FC000030B400292FD1C36AD968880744D0D3F80B
:10FC1000B001D3F8B411D3F8B841D3F8BC51D460D3
:10FC200020241561DC60DC68A50703D15C6944F021
:10FC300002045C611379440864F30413840864F3D8
:10FC4000451313719B062BD59368C00860F31C0302
:10FC500093601379080A61F30303090C13711070A0
:10FC6000518030BC7047012920D00229F9D1C36AE4
:10FC7000D3F8C001D3F8C411D3F8C841D3F8CC519C
:10FC8000D460202415611C611C69A407D2D15C6971
:10FC900044F010045C61CDE719698907E8D1E0E719
:10FCA0001389400D60F30A031381D2E7C36AAEE7FC
:10FCB0006849694A694B70B40D6B40F2FF163543D1
:10FCC0000D630C6D34430C6541685160816891602F
:10FCD000C168D160016951614169116281695162F4
:10FCE00001681160026A5A60426A9A60826ADA6048
:10FCF000C26A5A61026B1A62426B5A62C2691A6026
:10FD0000C26BC3F80424026CC3F80824426CC3F825
:10FD10000C24826CC3F81424C26CC3F82024026D36
:10FD2000C3F82424826BC3F8002403F50063826DBA
:10FD30005A60C26D9A60026EDA60426E5A61826EDB
:10FD40001A62C26E5A62426D1A60426FC3F804248E
:10FD5000826FC3F80824C26FC3F80C24D0F8802047
:10FD6000C3F81424D0F88420C3F82024D0F88820C5
:10FD7000C3F82424026FC3F80024D0F89020C3F8FD
:10FD80000428D0F89420C3F80828D0F89820C3F8A5
:10FD90000C28D0F89C20C3F81428D0F8A020C3F871
:10FDA0002028D0F8A420C3F82428D0F88C20C3F849
:10FDB000002803F54063D0F8AC205A60D0F8B0209A
:10FDC0009A60D0F8B420DA60D0F8B8205A61D0F840
:10FDD000BC201A62D0F8C0205A62D0F8A8201A605D
:10FDE000D0F8C820C3F80424D0F8CC20C3F80824E5
:10FDF000D0F8D020C3F80C24D0F8D420C3F81424B1
:10FE0000D0F8D820C3F82024D0F8DC20C3F824246C
:10FE1000D0F8C420C3F80024D0F8E420C3F80428A4
:10FE2000D0F8E820C3F80828D0F8EC20C3F80C2854
:10FE3000D0F8F020C3F81428D0F8F420C3F8202814
:10FE4000D0F8F820C3F82428D0F8E020C3F8002820
:10FE500070BC7047003802400000024000040240BD
:10FE60002DE9F04F02F0030CC2F38007C2F3C10684
:10FE7000C2F341150024C2F3C3124FF00F0E4FF02E
:10FE800001094FF0030830E0D0F820B00BEA0A0A6D
:10FE90004AEA03030362436809FA04FA23EA0A03FD
:10FEA0003B4343606300D0F808A008FA03F3DB4348
:10FEB0000AEA030A4AEA060AC0F808A0D0F80CA029
:10FEC00003EA0A0A4AEA050AC0F80CA0D0F800A022
:10FED00003EA0A0343EA0C03036049081BD07F00CE
:10FEE000B600AD004FEA8C0C013404F007039B0010
:10FEF0000EFA03FA11F0010F02FA03F36FEA0A0A8D
:10FF0000EBD0072CC0D9D0F824B00BEA0A0A4AEA91
:10FF100003034362BFE7BDE8F08F00BF00000000AD
:10FF200011F00C0F38B50546446B12D1296B0A68E5
:10FF3000136823F01F0313601368DB07FCD4087AEF
:10FF40004A683D2383401360636843F40073636031
:10FF500038BD0248FDF7DCFAE8E700BF70DA0208B6
:10FF600011F00C0F70B50646456B25D1F26A136887
:10FF7000196821F01F0119601C6814F00104FBD1FD
:10FF8000117A52683D238B4013606B6823F48053D1
:10FF90006B602B6823F480632B602B6843F4007341
:10FFA0002B60202383F3118806F11C002146FDF706
:10FFB0006FFD84F3118870BD0148FDF7A9FAD5E7FC
:10FFC00070DA0208000000000000000000000000DD
:10FFD00039483A4A70B5446BA369656945EA0343F9
:10FFE00023F07F43934250D022D8073A934240D027
:10FFF0000132934214D16268C36A22F400721B6812
:020000040801F1
:1000000062601A6842F001021A60626842F480522B
:1000100062605B68012B03D8236823F4806323604C
:1000200015F00A0F18BFA369BDE87040FEF790B93C
:10003000234A934212D002329342F1D1C36A1B6821
:100040005E683EB32368028C43F4A06342F0010271
:1000500002842360BDE87040FEF77AB96368026BE2
:1000600023F4007312686360136843F001031360A4
:10007000D6E7038C1A0A0BD003F0010343F0F00318
:1000800002F0060213432361CAE7038CC3F347035C
:100090002361C5E7636823F400736360236843F456
:1000A00000732360202383F311881C303146FDF751
:1000B000EFFC86F31188B3E77C1D002008000300E5
:1000C00082000700000000000000000000000000A7
:1000D0003448F8B5D0E90C756C693A6804F45F43AC
:1000E000DB436B61136823F01F031360A1B2136835
:1000F000DB07FCD43A7AC66A7F683D2393403268B6
:100100003B60136823F01F0313601368DF07FCD400
:10011000377A72683D23BB40136011F4807318BFB7
:1001200001238A05836044BF43F0020383604F05C7
:100130000AD56A6822F400726A602A6843F00403F0
:1001400042F400722A6083600E0544BF43F0080346
:1001500083604D0444BF43F020038360CA0424B28B
:1001600013D543F01003002C836016DB202383F3A8
:1001700011886FF001010C48FDF78AFC002383F31E
:100180001188BDE8F840FEF7E3B8002C05DB002B32
:10019000ECD1BDE8F840FEF7DBB843F040038360E4
:1001A000E4E700BF7C1D0020981D00200000000037
:1001B00010B5074C2046FEF7D3F9064B064A62639A
:1001C000002103F14802E161C4E90B3210BD00BF18
:1001D0007C1D0020B0D9020800540040000000003F
:1001E000F8B50378456B40F256428262012B40F22B
:1001F0001642044642623CD02B46D4E90B1260689A
:100200000F68D2F800C04168464E05F11002BA608E
:100210004FF41064CCF808204FF4004700222F6000
:100220002A606C605C684FF6C0773C40077A5C607F
:100230005C68B14244F02A045C6049DD3A4CA1425A
:1002400007DC022F56D0032F5FD048F6FF720D2136
:100250001962DA6101781A68022992B244D003293E
:100260003FD0012930D01A602B6843F001032B6086
:10027000F8BD2E4B9842BFD12D4EC06A336A2D4A2D
:1002800043F4001300213362234631620521FFF756
:100290003FF9294A206B23460521FFF739F9336CD2
:1002A00043F40013336405211F20FEF741FF0521AD
:1002B0002020FEF73DFF616A2048A26A636B01437C
:1002C0000243C4E9091298E722F00A0292B2CAE78F
:1002D0002B2449001A4A1C62B2FBF1F2C2F30B0252
:1002E000B7E742F00A02BEE722F0080292B242F0FB
:1002F0000202B8E701EB4101114AB2FBF1F26FEAE9
:1003000042426FEA524292B2A1E701EB810202EB54
:1003100082010B4AB2FBF1F26FEA82426FEA92422B
:1003200092B294E7A0860100801A06007C1D00208E
:100330000038024061FF000821FF000800000302AE
:1003400080DE8002000000000000000000000000CD
:1003500038B50378012B2DD0D0E90C1300240A689E
:100360004FF400451D601C605C605C61136823F005
:100370001F0313601368DC07FCD40A7AC56A4C6853
:100380003D2393402A682360136823F01F03136002
:100390001368DB07FCD40446287A6A683D2383404F
:1003A00013600846FFF7FCF8E06AFFF7F9F8084B1E
:1003B0009C4200D038BD1F20FEF7DAFE2020FEF759
:1003C000D7FE044A136C23F40013136438BD00BF36
:1003D0007C1D0020003802400000000000000000EA
:1003E0004900F0B441F0010100250184446B8560AF
:1003F000DDF810C085F31188C66A416A3768144E6B
:100400003960FA607B602A46B76A202501E082F3F2
:10041000118885F31188A369990702D423689B0585
:1004200008D5B36ADB1BB3F5FA7FF0D34FF0FF308A
:10043000F0BC7047636843F400736360236843F45F
:10044000A063236061461C30F0BCFDF711BB00BF08
:10045000481A00200000000000000000000000001A
:100460002DE9F04349000025164601849E46446B61
:100470008560DDE90728DDF824C085F31188D0E91F
:100480000B7109683F68836A0B60D0F82490CE60D6
:10049000164EC1F804E0C7F80090FA60C7F804806F
:1004A0002A46B76A202501E082F3118885F3118876
:1004B000A369990702D423689B0508D5B36ADB1B9F
:1004C000B3F5FA7FF0D34FF0FF30BDE8F0836368F7
:1004D00043F400736360236843F4807323606146D0
:1004E0001C30BDE8F043FDF7C3BA00BF481A002036
:1004F0002DE9F04FB84BB9499A69056D916187B004
:10050000202383F31188009300F16003A94605932B
:1005100005462B78012B05D0EB6D63B9D9F8143063
:10052000DB0608D4D9F81830059843F01003C9F851
:100530001830FDF78DFA002383F311889A46D9F815
:10054000143013F0100358D02A6D136A03F4F0111D
:10055000B1F5802F24D0B1F5402FF0D103F00F0179
:1005600005EB8101C3F30A13C96803339B080C6AC6
:10057000E5D002F5805202211668581E49B10346A3
:1005800044F8046B0139002BD9D01668581E002995
:10059000F5D10028D3D0023B1068002BF5D1CEE76F
:1005A00003F00F0605EB8606C3F30A14F3689F6990
:1005B0003B78F868002B3BD1D7E9011CCE1CE11C2D
:1005C000A6EB0C0689084FEA96060DD002F580527C
:1005D00086469046D8F800204B1E0EB319464EF8BA
:1005E000042B013E0029F5D12044F860D9F81430DD
:1005F000644413F01003BC60A6D10126EA6D06FA2C
:100600000AF6164250D10AF1010302936B6D9DF870
:1006100008A09B689A4592D9009B83F3118878E7DC
:10062000002BE1D00239D8F800300029D2D1DBE725
:100630003CB3416902F58052A446BCF1030F07D9CF
:1006400003698B4204D8C1684161BCF1030FF7D83C
:10065000D2F800E000232EFA03F701F10108C0F8F8
:1006600014800F70D0E904178F4224BFC168416124
:10067000BCF1010C03F1080303D0202B4169EAD13E
:10068000DBE7009B83F311888368234483600021A8
:10069000FDF726FAFDF7F4F8002383F31188F368D9
:1006A0009F69D7F808C0A1E7009A82F31188D9F8AA
:1006B0000810EA6D21F0010122EA0602C9F80810CB
:1006C000EA6583F3118805EB8A031F46D9684A69F6
:1006D000D2E90130984280F0B680D5F850E00C8A1B
:1006E0004FEA4A180EEB080C1B1ADCF818099C425A
:1006F00028BF1C4683B2B4EB830F00F2B1800AF12D
:10070000010302931B03CDE903960193B946019EB1
:100710001378D068B644002B7ED0FCB1D0F810B06E
:100720002246970883695ED0BBEB030148BF0331C3
:100730008E10BE4228BF3E46B100521A002E7CD019
:10074000194453F8046BCEF800608B42F9D1594537
:10075000816145D3C3688361002AE2D1009B83F3A2
:1007600011888368234483600021FDF7B9F9FDF700
:1007700087F8002383F31188D9F80C104A69D2E96D
:1007800001031C44A042946059D9D5F850E0B1F857
:1007900010C00EEB080A041BDAF81839644528BFAC
:1007A00064469BB2B4EB830FB1D9DDE90396002216
:1007B000009B83F31188D9F8083043F00103C9F88E
:1007C000083022B9D9F834381E43C9F834680023F8
:1007D00083F311881AE700BF481A0020C0DA020824
:1007E000002ABBD00B4600210E465F1C87611B7898
:1007F0005F4503FA01F346EA030624BFC368836139
:10080000013A04D0182902D008318369EDE7CEF807
:100810000060002A85D1A1E7E31C9B080AD000EB09
:100820008301034653F8046BCEF800608B42F9D184
:10083000D9F80C102044D060A0E7194687E7DDE91D
:1008400003960122B4E7009B83F31188D9F808309E
:100850000AF1010243F001030292C9F80830B6E739
:10086000009B83F31188D9F808300AF1010243F0A4
:1008700001030292C9F80830A4E700BF000000009D
:100880008B68F0B5002403F1010C25464FF0804E33
:100890004FF0FF3614E0C2F80059C118C1F81059E2
:1008A000C1F80869D2F8007B002F17DBC2F8005BA3
:1008B000034401346445C3F8105BC3F8086B14D0DB
:1008C0006301C218D2F800190029E4DAC2F800E97D
:1008D0001746D7F808198907FBD5DEE7C2F800EB01
:1008E000D1F8082BD206FBD5E2E74FF00113C0F890
:1008F0001C38F0BD000000000000000000000000F7
:1009000010B5064C2046FEF7FBF84FF0A043044A12
:10091000236500236265C4E9183310BDB81D0020AB
:10092000B0DA020800000000000000000000000033
:100930000378012B00D0704770B5314B066D98429B
:1009400082B005463BD0344600232E4AEB652E4943
:10095000F2604FF43412C6F800182020C6F8003EAA
:10096000B263FCF70DFE012323612369DB07FCD48E
:100970000C20FCF705FE2369002BFCDA0024B46090
:10098000D5E91401FFF77CFF6B68C6F81048DB68F7
:10099000C6F81448C6F81C486BB143F20803B361AB
:1009A0006B6E4FF0FF327261D3B1B36843F0010355
:1009B000B36002B070BD4FF44053B361F0E7134B26
:1009C0005A6B42F080025A635A69002042F080025A
:1009D0005A610E2158614320FEF7AAFB2C6DB3E744
:1009E0000B4B009502224FF4067105F16800FCF7ED
:1009F0008FFF6866FCF764FEFCF742FFD5E700BF97
:100A0000B81D0020401400400300200200380240BE
:100A1000F1040108000000000000000000000000D8
:100A200038B50378012B0ED0D0E91451044628467E
:100A3000FFF726FF094A00239442E365C5F81C38F6
:100A4000AB60AB6300D038BD4320FEF791FB044A96
:100A5000536B23F08003536338BD00BFB81D0020E3
:100A6000003802400000000000000000000000000C
:100A7000F8B5056D202306462B612C6914F020047F
:100A8000FBD10C20FCF77CFD776DBA6823464FF054
:100A90000060541CFF2105EB431201339C42C2F855
:100AA0000009C2F8000BC2F80819C2F8081BF2D1FD
:100AB0003B684FF001124FF0FF31C5F81818C5F828
:100AC0001C28B3653B68326D6B6210231361146997
:100AD00014F01004FBD10C20FCF752FDD5F80038BF
:100AE000104A114923F4FE63C5F80038AB6943F49A
:100AF000402343F01003AB610923C5F81038C5F853
:100B00001438F160C5F8104BC5F8002BC5F8104932
:100B1000C5F80029B36D03F1100243F48013B265E8
:100B2000AB62F8BD4080001080DA020800000000CF
:100B3000026D90F84E10D2F8003823F4FE6343EAB9
:100B40000113C2F8003870470000000000000000E8
:100B50002DE9F8430FFA81F800EB88070D46FB6892
:100B60001A6802F00302022A00F09780032A00F0BC
:100B700091804B4C4B49012A0CBFA1468946046D1C
:100B8000DE68690162184FF0000CC2F810CB05F165
:100B900010024FF0010C0CFA02F2002E4BD0B3F809
:100BA00012C005F1580676014CEA090C44F806C05B
:100BB000D4F81C683243C4F81C286618D3F808C05F
:100BC0000022A901C6F8102941F020016A1EBCF1DB
:100BD000000F3FD0B3F81CC01E8ABCF1010F4FEAD2
:100BE000960302F14002866D88BF0CFB03F304EB11
:100BF000820203EB060C46EA0343C0F858C0536078
:100C0000216123699A06FCD40C20FCF7B9FCFB682F
:100C10001A8A05F1480342EA85525B0142EA090259
:100C2000E2500121D4F81C3801FA05F51D43C4F83F
:100C30001C58BDE8F88304EB481CDCF8006B26F474
:100C40000046CCF8006BD4F81C6826EA0202C4F80F
:100C50001C28B2E705F13F0304EB8303124A5A60F4
:100C6000216123699B06FCD404EB48180C20FCF797
:100C700087FCD8F8003923F40043C8F80039D4F8C9
:100C80001C38012101FA05F523EA0505C4F81C58B2
:100C9000BDE8F883DFF8149071E7DFF814906EE791
:100CA00000800410008000100004000200800C107E
:100CB000008008100000000000000000000000009C
:100CC0005831036D49015B5813F4004004D013F40C
:100CD000001F14BF01200220704700BF0000000069
:100CE0004831036D49015B5813F4004004D013F4FC
:100CF000001F14BF01200220704700BF0000000049
:100D000000EB8101CB681B6A19685B685360116056
:100D1000704700BF0000000000000000000000005D
:100D200000EB810370B4DE68B5696A682A6129B98D
:100D3000402A03D94022094C6A6001E042F0C044D5
:100D4000758A006D6B1E00EB41111344B3FBF5F384
:100D500044EAC343C1F8103B70BC704740000060D8
:100D60002DE9F041244E376D07EB40130546D3F8CB
:100D7000084BC3F8084B20070AD5D7F814381907D1
:100D800006D506EB85032946DB6830465B68984745
:100D9000E2072ED5D7F81438DB072AD506EB8503F2
:100DA000D9688B6958681A6990420CD37389CC68EA
:100DB00011480122AA4023EA0203738129462346EF
:100DC000BDE8F0411847121A0024C3E9012429465E
:100DD0000948FFF7A5FF202383F31188336D03EB48
:100DE0004515D5F8003B43F08063C5F8003B84F31C
:100DF0001188BDE8F08100BFB81D00200000000090
:100E000000EB810310B4DC68026D60694368036124
:100E10009BB169B1208A5DF8044B02EB4112411E7F
:100E20001944B1FBF0F143EAC143C2F810397047ED
:100E3000402B84BF40234360ECE702EB41124FF4A8
:100E40000023C2F810395DF8044B70470000000021
:100E50002DE9F041304E356D05EB40130746D3F8D0
:100E60000849C3F80849E10716D5D5F81038DA075C
:100E700012D506EB8003D9684B6958681A6990420D
:100E80002AD33389D1F808800122BA4023EA020329
:100E9000338139463046C047230606D50123D5F8AD
:100EA000342803FA07F7174201D1BDE8F081202367
:100EB00083F31188D5F83428F36D184822EA070225
:100EC000C5F834281F430021F765FCF7E1FD002336
:100ED00083F31188BDE8F081121A4FF00008C3E9CE
:100EE000012839463046FFF78BFF202383F3118812
:100EF000326D02EB47100123D0F8001941F0044194
:100F0000C0F80019D2F83418BB400B43C2F834388B
:100F100088F31188C0E700BFB81D0020181E00200C
:100F200070B53A4D2E6D7469B3691C40E10474616B
:100F300026D4A20448BFD6F80838230704D56B6826
:100F4000DB680BB131489847E50624D46003D6F836
:100F5000185807D5E9074FD4AA0742D46B0745D4E0
:100F60002E074FD4240307D5E8032AD4A9032DD490
:100F70006A0330D42B031DD4BDE87040FDF7E8B9F7
:100F80002846FDF75DFE6B681B68002BD1D0002161
:100F900028469847CDE7202383F31188B3691C487E
:100FA00023F01003B3610021FCF772FD002383F3EB
:100FB0001188CBE70320FFF7D3FEBDE87040FDF7B3
:100FC000C7B90020FFF7CCFEA903D1D50120FFF758
:100FD000C7FE6A03CED50220FFF7C2FE2B03CBD596
:100FE000E8E70120FFF734FF6B07B9D50220FFF7D0
:100FF0002FFF2E07B6D505E00020FFF729FFAA072F
:10100000ACD5EEE70320FFF723FFABE7B81D0020C8
:10101000181E00200000000000000000000000007A
:10102000036D03EB4111D1F8003B43F08063C1F83D
:10103000003B7047000000000000000000000000BE
:10104000026D10B402EB41140123D4F8000940F002
:101050000440C4F80009D2F834085DF8044B03FAE0
:1010600001F10143C2F83418704700BF00000000CE
:10107000036D03EB4111D1F8003B43F40013C1F8B9
:10108000003B70470000000000000000000000006E
:10109000036D03EB4111D1F8003943F40013C1F89B
:1010A0000039704700000000000000000000000050
:1010B000036D03EB4111D1F8003B23F40013C1F899
:1010C000003B70470000000000000000000000002E
:1010D000036D03EB4111D1F8003923F40013C1F87B
:1010E0000039704700000000000000000000000010
:1010F00010B50A4C0A4B4FF6FF7220461A80FDF7D6
:10110000AFFC084B08480949094AE06103F1240093
:10111000C4E90830C4E90A1210BD00BF5420002001
:101120008420002010DA0208003001401600010679
:101130004600010600000000000000000000000062
:10114000F8B5264DEB6869681C69DA68087D1440BB
:10115000E2B2D2431A6104F0020688B9620730D5C0
:101160002B78042B29D09EB9E30705D56B681B4863
:101170001B69984703232B70BDE8F840FDF7E8B8DA
:1011800004F004075EB12B78042B04D0002FEBD0C1
:1011900004232B70E8E78B68E3B128469847002FBB
:1011A000E2D02B78042BF3D16968CB68002BEFD009
:1011B0000A48984704232B70D6E78B683BB1284632
:1011C0009847002ED0D02B78042BE1D1ECE7002EED
:1011D000CAD0EAE7002FC7D0E7E700BF8820002089
:1011E00010B5034C2046FDF733FA024BE36010BD07
:1011F00088200020000400400000000000000000E3
:101200000378012B70B504463AD0C36800221A60F7
:101210005A639A635A62D4E9011288690D7D20F0FD
:10122000FF0000261E61D8604868B2FBF0F24FF65E
:10123000FF70013A9A620A78D8626DB940F20120D3
:10124000542198619960C2B113221A6203F13802E5
:101250003433C4E9042370BD4FF481706421986174
:1012600099603AB131221A6203F134023833C4E989
:10127000042370BD13221A62F6E731221A62E5E7F1
:101280000B4B984201D0E368C5E70A4B1A6C42F059
:1012900002021A641A6A002042F002021A6207214E
:1012A00018621D20FDF744FF034BA360EBE700BF6E
:1012B000882000200038024000BD01050000000029
:1012C00008B50378022B00D008BD0849C368002286
:1012D00088421A60DA601A61F6D11D20FDF748FFD6
:1012E000034A136C23F00203136408BD8820002016
:1012F0000038024000000000000000000000000074
:10130000C3685A69002042F0010205215A61186140
:10131000196070470000000000000000000000009D
:10132000C268D36810B413F0FF040CD14168146193
:101330000C7D886854B970B143F00603096909B19E
:1013400043F00103D3605DF8044B70470028F3D1EC
:1013500043F00403F2E743F00203EFE7000000006C
:1013600001690A68136823F01F0330B4136013681F
:10137000DB07FCD40D7A4469496822683D23AB4001
:101380000B60136823F01F031360136813F001034D
:10139000FBD1257A826860683D21A940016030BC9C
:1013A000D36013615361704700000000000000002B
:1013B0002DE9F0418468E7682668626840F20F13FF
:1013C0001E4205461DD043681A696FF4807323607E
:1013D000BAB1B3B213F0080F0CBF00211021D80727
:1013E00048BF41F00401980748BF41F00801580781
:1013F00048BF41F02001D80548BF41F040012846D0
:10140000904772060ED57B060CD56B685B6827F09B
:1014100040076FF040022260E7601BB12846BDE83C
:10142000F0411847BDE8F081000000000000000016
:1014300011F00C0F38B504461BD161690A681368B6
:1014400023F01F0313601368DB07FCD463680D7A75
:1014500048681A683D23AB400221036061702AB1DD
:10146000204690476378022B00D038BD002363707C
:1014700038BD0248FCF74CF8DFE700BF70DA02081D
:1014800011F00C0F2DE9F04104463AD1A3786168C0
:101490003BB9CB68002B32D0218B2046BDE8F04110
:1014A000184720690268136823F01F03136013684C
:1014B000DB07FCD4077A46688D683D23BB400220D9
:1014C0003360A0703DB12046A847A378022B16D107
:1014D000236961681A68CB68E168002B14BF4FF478
:1014E00088734FF480730B430025012104F1180029
:1014F000A570D0605160136013680B431360BDE8A2
:10150000F0810248FCF704F8C0E700BF70DA020877
:1015100008B50348FFF74CFFBDE80840FCF718BFCB
:10152000A0200020000000000000000000000000DB
:1015300008B50348FFF73CFFBDE80840FCF708BFCB
:10154000BC2000200000000000000000000000009F
:1015500070B50C4D0C4C0D4E2846FDF791FA0C4B16
:10156000AB60062204F118033046C5E903246B6121
:10157000FDF786FA074BB36004F16C03A834C6E9A3
:10158000043470BDA0200020BCD90208BC2000207B
:10159000004800400014014000000000000000006E
:1015A000F8B50378012B044640D085680023A3706A
:1015B00063702046FFF7D4FE444BA2689A426368EA
:1015C00008D043485969824205D0424AB2FBF1F241
:1015D000AA6004E05969404AB2FBF1F2AA60D968F6
:1015E0005E8B1A8B988B2B686B68D4E90373002988
:1015F0004FF000011B68296040F0C10042F4045222
:1016000046F0400614BF4FF488714FF480712E618C
:1016100042F00C026861183401203943EA60DC6052
:10162000586019601A6802431A60F8BD2B4B984243
:1016300032D02B4B984215D063681B8B03F4A05318
:10164000B3F5805F03D1E36843F42053E360D4E94A
:101650000423A5681068196800222B1D83608B6025
:101660002283A3E703461F4A00690C21FDF750FFC0
:1016700023461D4A60690C21FDF74AFF1B4A536C43
:1016800043F0200353640C214720FDF751FDE3682C
:1016900043F02063E360CFE70346124A00690C2160
:1016A000FDF736FF2346104A60690C21FDF730FF35
:1016B0000E4A136C43F4802313640C212720FDF79A
:1016C00037FDE36843F00063E360B5E700100140D5
:1016D0000014014080DE800200BD0105A020002032
:1016E000BC20002081140108311401080038024098
:1016F0000278022A00D0704710B50446FFF730FE8A
:101700002069FDF74DFF6069FDF74AFF0C4B9C42D5
:101710000CD00C4B9C4200D010BD4720FDF728FD9B
:10172000094A536C23F02003536410BD2720FDF7B2
:101730001FFD054A136C23F48023136410BD00BF02
:10174000A0200020BC200020003802400000000043
:1017500030B443694568C4681B686D68DA6044F456
:101760008A6459601C603DB182686FF0400111606D
:10177000D16841F04001D1601A6842F001021A605C
:1017800030BC7047000000000000000000000000B6
:1017900010B504460846FCF703FD00B110BD0C234C
:1017A00023604FF0FF3010BD00000000000000007B
:1017B000FDF756BF00000000000000000000000020
:1017C000704700BF000000000000000000000000A3
:1017D00008B5054B054A9B699A6104F0D9FC0A20BB
:1017E000FCF7FEF8F9E700BF481A0020E0DB02082A
:1017F00038B5474B474A9B692DED048BDFED468A90
:101800009FED468A9A612BE0B0EE480A012000F075
:101810000FFE09F03DFE012850D006F059FF0428C4
:10182000044654D005285FD0032855D009F0E8FDC0
:101830008378022B11D1022C65D0062C0DD10CF02F
:10184000D7FAB0EE409A0CF0EBFAF0EE400AB0EEA8
:10185000490A04F08DF906F01BFF6420FCF7C0F87C
:1018600009F016FE02280CBFB7EE000AB0EE680AB7
:10187000002000F0DDFD09F0F3FD05460028C3D08F
:101880000024B7EE000A012000F0D2FD40F6C4109B
:10189000FCF7A6F80120B0EE480A044400F0C8FDA9
:1018A00040F6C410FCF79CF8AC42EAD141F2883013
:1018B000FCF796F809F0ECFD0128AED102F020FC0F
:1018C00006F0E6FE06F004FF04280446AAD10AF05A
:1018D000BFFB06F0DDFE03E009F0F2F906F0D8FEEA
:1018E00009F08EFD8378B8E70AF0AAFBB0EE409AC3
:1018F0000AF0AEFBF0EE400AB0EE490A04F038F907
:1019000006F0C6FEECE70CF073FA06F0C1FEA4E7A1
